:0200000480007A
:10000000378E0000130E0E111305A0009305000695
:10001000D772B5801303000063966204F32300C215
:1000200063926304F32310C213D4F301130310008B
:10003000631A64021305A00093054004D772B580CB
:100040001303000063966202F32300C2639263020B
:10005000F32310C213D4F30113031000631A6400D6
:100060006F00C002378E0000130E1E116F000001DA
:10007000378E0000130E2E116F004000370110F074
:10008000130141F22320C1016F004001370110F03C
:10009000130101F2232001006F0040006F000000F7
:040000058000000077
:00000001FF
