:0200000480007A
:1000000093000000130100009301000013020000A0
:100010009302000013030000930300001304000088
:100020009304000013050000930500001306000070
:1000300013054001930580055776B58093020002B1
:1000400063165602B70210F0938202F21303000007
:1000500023A062006F00C002B70210F0938202F288
:100060001303100023A062006F008001B70210F09C
:10007000938202F21303200023A062006F0040006D
:040080006F0000000D
:040000058000000077
:00000001FF
