:0200000480007A
:10000000130E0000130F10001303A0009303000051
:10001000D7727380732500C2F32510C2130EA0009F
:10002000639EC22B631CC52B130E00006398C52B67
:10003000130F20001303A0009303A000D772738056
:10004000732500C2F32510C2130E80006398C229E5
:100050006316C529130EA0006392C529130F300043
:100060001303300093039003D7727380732500C28B
:10007000F32510C2130E30006392C2276310C52708
:10008000130E9003639CC525130F4000130350000B
:1000900093030003D7727380732500C2F32510C247
:1000A000130E4000639CC223631AC523130E000382
:1000B0006396C523130F50001303A000B7030080FD
:1000C000D7727380732500C2F32510C2130E00008F
:1000D0006396C2216314C521370E00806390C52149
:1000E000130F60001303A00093030010D7727380F6
:1000F000732500C2F32510C2130E00006390C21FC7
:10010000631EC51D13D6F501130E10006318C61D1E
:10011000130F70001303A00093030002D7727380C3
:10012000732500C2F32510C2130E00006398C21B92
:100130006316C51B370E0080130E0E0213D6F50191
:10014000130E1000631CC619130F80001303A000C8
:1001500093033000D7727380732500C2F32510C259
:10016000130E2000639CC217631AC517130E3000CC
:100170006396C517130F90001303A000930380022A
:10018000D7727380732500C2F32510C2130E2000AE
:100190006396C2156314C515130E80026390C515CE
:1001A000130FA000130350009303200CD772738029
:1001B000732500C2F32510C2130E40006390C213D2
:1001C000631EC511130E200C639AC511130FB000E6
:1001D0001303600493030001D7727380732500C278
:1001E000F32510C2130E0004639AC20F6318C50FE3
:1001F000130E00016394C50F130FC00013032008F2
:1002000093038001D7727380732500C2F32510C257
:10021000130E00086394C20D6312C50D130E800106
:10022000639EC50B130FD0001303500093031000FF
:10023000D7727380732500C2F32510C2130E5000CD
:10024000639EC209631CC509130E10006398C5099B
:10025000130FE0001303400193039000D7727380E3
:10026000732500C2F32510C2130E00016398C20764
:100270006316C507130E90006392C507130FF000B5
:100280001303300093032000D7727380732500C2DC
:10029000F32510C2130E30006392C2056310C5052A
:1002A000130E2000639CC503130F000113031000FD
:1002B00093033000D7727380732500C2F32510C2F8
:1002C000130E1000639CC201631AC501130E3000A7
:1002D0006396C501130510006F00800013151F0001
:0C02E000B70001F023A0A0006F00000098
:0802F000000000000000000006
:040000058000000077
:00000001FF
